:020000040800F2
:10000000500D002045010008EB2C0008E1270008F6
:10001000E92C000851030008D93400080000000052
:100020000000000000000000000000002D2D00086E
:1000300025060008000000000D2D00088F2D000887
:100040005F0100085F0100085F0100085F01000810
:100050005F0100085F0100085F0100085F01000800
:100060005F0100085F0100085F0100085F010008F0
:100070005F0100086D0300085F01000879030008B4
:10008000850300085F010008790200085F0100088D
:100090005F0100085F0100085F0100085F010008C0
:1000A0005F0100085F0100085F0100085F010008B0
:1000B0005F010008612E00086D2E00085F01000836
:1000C0005F0100085F0100085F010008112D0008B2
:1000D0005F0100089D340008B1340008C5340008F1
:1000E0005F0100085F0100085F0100085F01000870
:1000F0005F0100085F0100085F0100085F01000860
:100100005F0100085F010008792E00085F01000808
:100110005F0100085F0100085F0100085F0100083F
:100120005F0100085F0100085F0100085F0100082F
:10013000DFF80CD000F07EF8004800478D3D000845
:10014000500D00200648804706480047FEE7FEE7BE
:10015000FEE7FEE7FEE7FEE7FEE7FEE7FEE7FEE777
:10016000192E000831010008202A04DB203A21FA68
:1001700002F00021704721FA02F3D040C2F12002C0
:10018000914008431946704740EA01039B0703D09A
:1001900009E008C9121F08C0042AFAD203E011F8C6
:1001A000013B00F8013B521EF9D27047D2B201E088
:1001B00000F8012B491EFBD270470022F6E710B56C
:1001C00013460A4604461946FFF7F0FF204610BDC5
:1001D0002DE9F05F0546002092469B46884606467C
:1001E000814640241BE02846414647462246FFF709
:1001F000BBFF53465A46C01A914110D311461846C8
:10020000224600F029F82D1A67EB01084F462246D6
:100210000120002100F020F817EB00094E41201EBC
:10022000A4F10104DFDC484631462A464346BDE8D6
:10023000F09F0000064C074D06E0E06840F0010327
:1002400094E8070098471034AC42F6D3FFF774FFE8
:10025000AC3F0008CC3F0008202A04DB203A00FA1B
:1002600002F1002070479140C2F1200320FA03F30D
:10027000194390407047000010B5044800F058FA48
:10028000BDE81040024800F053BA00004C000020C6
:100290007C00002070B5044600688168C943C90726
:1002A0001CD1816821F00101816000F0BDFF05468D
:1002B0000FE000BF00F0B8FF401B022809D9A06A78
:1002C00040F01000A062E06A40F00100E06201200E
:1002D00070BD20688068C043C007EBD0002070BDAF
:1002E000F8B500260446009600688168C943C9072E
:1002F00028D0816841F001018160134813490068EA
:10030000B0FBF1F000E0401E00900028FBD100F0AF
:100310008BFF054611E000BF00F086FF401B02285E
:100320000BD9A06A40F01000A062E06A40F0010022
:10033000E06284F824600120F8BD20688068C04332
:10034000C007E9D10020F8BD3400002040420F0072
:10035000FEE70000022903D1014602A003F0BEB867
:100360007047000025730D0A00000000014800F0EE
:10037000BBBC00000C090020014800F0B5BC000027
:1003800084080020014800F0AFBC0000C80800202D
:1003900030B590F840500124AC40C56B6C600468E7
:1003A00063604368102B036803D099600068C260E3
:1003B00030BD9A600068C16030BD0000074810B5CC
:1003C00000680024C16841F01001C1604FF48072E0
:1003D0000349024802F058F9204610BDC407002026
:1003E000C401002038B5164C20680168C943C9060D
:1003F00024D40168002540680090204601F0A5FF44
:10040000606B006840680F4CC0F5807082B2A280BB
:1004100001200D49207001F58070FFF7B5FEA1881D
:100420000948FFF7CAFEA088E080A580BDE83840F3
:100430004FF480720449024802F026B938BD00002A
:10044000C407002018000020C40100200A4810B58D
:1004500000680024C16841F01001C1604FF480724F
:100460000649054802F010F900220221044800F074
:10047000D6FE204610BD000004080020C403002062
:100480000010014038B5164C20680168C943C90600
:1004900024D40168002540680090204601F055FFF3
:1004A000606B006840680F4CC0F5807082B222819A
:1004B00001200D49607001F58070FFF765FE21890C
:1004C0000948FFF77AFE208960812581BDE8384020
:1004D0004FF480720449024802F0D6B838BD0000DB
:1004E0000408002018000020C40300200A4810B5AA
:1004F00000680024C16841F01001C1604FF48072AF
:100500000649054802F0C0F800224FF48041044833
:1005100000F085FE204610BD44080020C4050020E0
:10052000000C014038B5164C20680168C943C90663
:1005300024D40168002540680090204601F005FFA2
:10054000606B006840680F4CC0F5807082B2A28179
:1005500001200D49A07001F58070FFF715FEA189FB
:100560000948FFF72AFEA089E081A581BDE838404F
:100570004FF480720449024802F086B838BD00008A
:100580004408002018000020C405002013460A4635
:1005900010B50146034802F0C5F8002800D001203C
:1005A00010BD0000C40700202DE9F0410B4F144698
:1005B0000D46064601220221384600F030FE234651
:1005C0002A463146064802F0ADF8044600220221D0
:1005D000384600F024FE2046BDE8F08100100140BE
:1005E000040800202DE9F041144601220B4F0D466E
:1005F000804696033146384600F011FE23462A46CF
:100600004146074802F08EF804460022314638463B
:1006100000F005FE2046BDE8F0810000000C01401E
:100620004408002070477047F8B50024009490F803
:1006300024202546012A12D0012280F824204A686D
:100640001F23072A0DD20668776B521E02EB820227
:1006500093409F430B6893401F43776319E0022048
:10066000F8BD06680D2A0AD2376BD21F02EB820250
:1006700093409F430B6893401F43376309E0F76A39
:100680000D3A02EB820293409F430B6893401F4355
:10069000F7620A68072306680A2A0AD3F7680A3A43
:1006A00002EB420293409F438B6893401F43F760E5
:1006B00008E0376902EB420293409F438B68934006
:1006C0001F4337610A68102A01D0112A20D1124B2A
:1006D00002689A4217D193681B0219D4936843F4B5
:1006E000000393600968102912D10C490C4A09686B
:1006F000B1FBF2F101EB8101490000E0491E0091DC
:100700000029FBD104E0816A41F0200181620124CB
:1007100080F824502046F8BD002401403400002019
:1007200040420F007047806A70470068C06C704795
:1007300010B5044600684168890626D50168890716
:1007400023D5A16AC90603D4A16A41F40071A1624C
:100750008168C1F34241072910D1E16871B941684C
:1007600021F020014160A06A20F48070A062A06A9C
:10077000C00403D4A06A40F00100A0622046FFF745
:10078000D1FF21686FF012000860206841680906F7
:100790002ED5016849072BD5A16AC90603D4A16AE1
:1007A00041F40051A1628168C1F30231072909D0E7
:1007B0004168490515D48168C1F34241072910D128
:1007C000E16871B9416821F080014160A06A20F4BC
:1007D0008050A062A06AC00503D4A06A40F0010066
:1007E000A0622046FFF71FFF21686FF00C00086031
:1007F0002068416849060DD50068C0070AD0A06A84
:1008000040F48030A062204600F096F821686FF036
:100810000100086010BD00002DE9F04104004FF018
:1008200000057FD0A06A002628B9E66284F824601B
:10083000204600F083F82046FFF72CFDA16AC90688
:1008400000D420B1A06A40F01000A0626AE0A16A62
:1008500021F4885141F00201A162334923688B429F
:10086000E16904D1B1F5402F01D14FF40021E768CF
:100870004FF4807C41EA470261680A43A168614500
:1008800008D0012906D00021D4F814E0BEF1010FF0
:1008900002D00AE06146F7E7C7B1A76A47F0200730
:1008A000A762E76A47F00107E7625F6827F46947D4
:1008B0000F435F60236899681C4F3940114399606A
:1008C000A16861450BD0012909D00CE0DFF860E098
:1008D000A7690EEB47370F4347F40061E5E7218A2C
:1008E0000D05A5F580152168CB6A23F470032B4311
:1008F000CB62216889680F4B1940914208D1E662AA
:10090000A16A21F0020141F00101A162BDE8F0817C
:10091000A06A20F0020040F01000A062E06A40F0FF
:100920000100E0620120F1E7003C0140FDF7E1FF3A
:1009300000E0FFFFFE0E1FFF7047000000B5124AE7
:100940000168124885B0914209D1816941F4007172
:100950008161806900F40070049005B000BD0C4A0C
:100960009142FAD1816941F480618161806969466F
:1009700000F480600490042000900320019005485A
:1009800000F050FBE9E700000024014000100240A5
:1009900000280140001001402DE9F84300260D46D3
:1009A0000446009600F040FC804620688168C90536
:1009B00008D5A06A40F02000A06284F824600120DD
:1009C000BDE8F8834168C90503D4C06A10F4700F0C
:1009D00026D0022000F0E6FC38490968B1FBF0F7A8
:1009E0002068036936490B424FEA61014FEAA112C0
:1009F0001BD1C3684FEA611C13EA0C0F15D10369C0
:100A00000B4221D1C06810421ED114201FE0681C87
:100A100006D045B300F008FCA0EB0800A84222D89D
:100A2000206800688007F2D52AE003690B4202D1F2
:100A3000C168114206D0026922490A4206D1C06843
:100A4000084203D1542002E0292000E0FC20474363
:100A5000009813E0681C0ED02DB100F0E5FBA0EB70
:100A60000800A84207D9A06A40F00400A06284F8F8
:100A700024600320A4E70098401C0090B842E9D30A
:100A800021686FF012000860A06A40F40070A06254
:100A900020688068C0F3424007280CD1E06850B954
:100AA000A06A20F48070A062A06AC00403D4A06A87
:100AB00040F00100A062002082E700003400002026
:100AC000244992244992240070B5044690F82400E9
:100AD00001280DD0012084F824002046FFF700FCF7
:100AE00002004FF0000005D084F82400104670BDCD
:100AF000022070BDA16A40F20123994341F4807144
:100B0000A1621F4D23681F49AB4218D10E6816F42D
:100B1000702F14D0A66A46F48016A6620E68760579
:100B200005D5A66A26F4005646F48056A662A66A43
:100B3000F6040AD5E66A26F00606E66206E0A66A2C
:100B400026F48016A6625E68E9E7E06284F8240075
:100B50006FF00200186020688368C3F34243072BDC
:100B600005D1A84208D1096811F4702F04D081681A
:100B700041F480118160B9E7816841F4A001F9E78F
:100B8000002801400424014001680A6822F00E0296
:100B90000A6001680A6822F001020A6090F84020A9
:100BA000C36B012101FA02F25A6080F82110002182
:100BB00080F82010084670472DE9F05F90F821106A
:100BC0000024022903D004218163012485E0016807
:100BD0000A6822F00E020A6001680A6822F0010227
:100BE0000A603F4E3E4FB215DFF8F4C0DFF8F090D8
:100BF000DFF8ECA0DFF8E8B0DFF8E4E00168783F68
:100C000013011502ACF1640CA9F15009AAF13C0AD8
:100C1000ABF1280BAEF1140E4FF48018B14227D976
:100C2000B9420ED0614512D049451DD0514518D06A
:100C3000594518D0714501D1424615E0294EB142BF
:100C400001D1012210E0274E1436B14201D1102209
:100C50000AE0244E2836B14206D0224A3C32914264
:100C600001D11A4600E02A461E49091F0A602BE0FE
:100C7000B94213D0614517D0494522D051451DD006
:100C800059451DD0714501D142461AE0B14202D109
:100C90004FF0807215E0134EB14201D1012210E0F5
:100CA000104E1436B14201D110220AE00D4E283602
:100CB000B14206D00B4A3C32914201D11A4600E0C3
:100CC0002A46074980394A60012180F82110002115
:100CD00080F82010416B01B188472046BDE8F09FA5
:100CE00080000240080402402DE9F05FC16B0A68F1
:100CF00001680B68046C4FF0040808FA04F8844D8E
:100D0000844E854FDFF814C2DFF81492DFF814A286
:100D1000DFF814B2DFF814E218EA020F65D05FEAD8
:100D2000437862D50A68920603D40A6822F0040266
:100D30000A60DFF8F0814FF48062016808F114085E
:100D400013011402414524D9A9420DD0B1420FD05C
:100D5000B9421AD0614515D0494515D0514501D148
:100D6000120312E0594501D104220EE0714501D170
:100D700040220AE06D4D1435A94206D06B4A283254
:100D8000914201D11A4600E022466749091F0A60D4
:100D900029E0A94213D0B14215D0B94220D0614513
:100DA0001BD049451BD0514502D14FF4800217E0BA
:100DB000414502D14FF0806212E0594501D1042231
:100DC0000EE0714501D140220AE0584D1435A94288
:100DD00006D0564A2832914201D11A4600E02246F6
:100DE0004B4908394A60C16A71E04FF0020808FABD
:100DF00004F818EA020F70D05FEA83786DD50A68AC
:100E0000920606D40A6822F00A020A60012180F8DC
:100E10002110DFF810814FF40072016808F1140806
:100E200013011402414524D9A9420DD0B1420FD07B
:100E3000B9421AD0614515D0494515D0514501D167
:100E4000120312E0594501D102220EE0714501D191
:100E500020220AE0354D1435A94206D0334A283203
:100E6000914201D11A4600E022462F49091F0A602B
:100E700029E0A94213D0B14215D0B94220D0614532
:100E80001BD049451BD0514502D14FF4001217E049
:100E9000414502D14FF0007212E0594501D10222C2
:100EA0000EE0714501D120220AE0204D1435A942FF
:100EB00006D01E4A2832914201D11A4600E022464D
:100EC000134908394A60002180F82010816A0029FE
:100ED0001CD0BDE8F05F0847FFE70825A540154294
:100EE00014D01A0712D50A6822F00E020A6090F890
:100EF0004020C36B012101FA02F25A60816380F83D
:100F00002110002180F82010016BE0E7BDE8F09F80
:100F1000080002401C000240300002404400024031
:100F2000580002406C000240080402401C040240C9
:100F300030B560B11C4A03681421934209D21B4AA0
:100F40001A44B2FBF1F18900016419490AE0012059
:100F500030BD154A52421A44B2FBF1F189000164D6
:100F600011490839C163022180F821101A6843F63B
:100F7000F0718A43F0E901142143D0E902452C4382
:100F80002143046921434469214384692143114376
:100F90001960002141628162C162016341630122E3
:100FA00042770177084630BD08040240F8FFFDBFD4
:100FB0000000024070B5044690F82000002501288A
:100FC0000CD0012084F8200094F821600020012E2C
:100FD00006D084F820000225284670BD022070BD8E
:100FE000022684F82160A0632068066826F00106C6
:100FF00006602046FFF7CCF9E06A00282068016807
:1010000002D041F00E0106E021F0040101602068E9
:10101000016841F00A0101602068016841F00101A6
:101020000160D9E72DE9F84FDFF8B8A100220AF1F5
:10103000040B144601274FF00F090BF1040E00BFFB
:101040000B6807FA04F52B40AB4274D1DFF898C166
:101050004E68A6EB0C0866452BD00DDC032E34D071
:1010600005DC36B3012E19D0022E2FD11BE0112E34
:1010700016D0122E2AD119E0B8F5881F19D006DC37
:10108000B8F5803F15D0B8F5801F1FD111E0B8F535
:10109000001F0ED0B8F5041F18D10AE0CA6815E089
:1010A000CA68121D12E0CA6808320FE0CA680C3222
:1010B0000CE08A682AB1012A4FF0080203D045618A
:1010C00004E0042202E0056100E00022FF2B01D8C9
:1010D000064601E000F104064FEA840501D9A5F1B6
:1010E0002005D6F800C009FA05F82CEA080C02FA27
:1010F00005F54CEA050CC6F800C04D68ED006AD550
:101100003A4DAE6946F00106AE61AD6924F00306C2
:1011100005F001050095364D06EB050CDCF808508E
:10112000A6074FEA167809FA08F6B543314EB042E1
:1011300002D100261AE04EE02F4EB04201D1012626
:1011400014E02E4EB04201D102260FE02C4EB042E8
:1011500001D103260AE02B4EB04201D1042605E05E
:10116000294EB04201D1052600E0062606FA08F60F
:101170002E43CCF808604D68DAF80060ED03554660
:1011800001D51E4300E09E432E604D68AD0305D59A
:10119000DBF800601E43CBF8006004E0DBF8005091
:1011A0009D43CBF800504D68DEF80060ED027546B7
:1011B00001D51E4300E09E432E604D68AD0205D56B
:1011C000084D0C352E681E432E6004E0054E0C368B
:1011D00035689D433560641C102CFFF431AFBDE8C9
:1011E000F88F0000000401400000111000100240C0
:1011F0000000014000080140000C014000100140C7
:101200000014014000180140001C014080680840A3
:1012100000D001207047C2684A40C26070470AB1DE
:10122000016170470904FBE70148806870470000CE
:1012300028000020024881680278114481607047CC
:1012400028000020074810B5016841F01001016036
:10125000032000F095F8002000F006F800F024F8D4
:10126000002010BD0020024070B50D4D04464FF423
:101270007A712878B1FBF0F00A490968B1FBF0F007
:1012800000F0DFFC48B9102C07D200222146501E86
:1012900000F056F800206C6070BD012070BD0000A9
:1012A00028000020340000201D4808B5816941F065
:1012B00001018161806900F001000090032000F0CD
:1012C0005FF8002211466FF00B0000F039F80022A1
:1012D00011466FF00A0000F033F8002211466FF05B
:1012E000090000F02DF800221146501F00F028F8E8
:1012F00000221146101F00F023F800221146901E14
:1013000000F01EF800221146501E00F019F80548A2
:10131000416821F0E06141F00071416008BD0000CA
:10132000001002400000014000F01F020121914026
:101330004009800000F1E020C0F800117047000073
:10134000F0B40E4B1B680C46C3F30223C3F1070530
:10135000042D00D90425191D072901D2002300E01E
:10136000DB1E012606FA05F1491E214099409E40E8
:10137000761E16403143F0BC01F0B8BC0CED00E025
:10138000064900F0070208684FF6FF03184040EADC
:101390000220034A10430860704700000CED00E093
:1013A0000000FA0510B52CA401461DCC86B08DE8CE
:1013B0001D002DA02D4C00680490002004292FD082
:1013C0000BDC01292FD0022928D100F08BF96168AC
:1013D000C1F38131491C49001EE0082920D01029A1
:1013E0001CD161682268D20118D5C1F38342C903B8
:1013F0001DF8020009D5616804AAC1F34041515C9F
:101400001B4AB2FBF1F1484301E01A4948436168C5
:10141000490203D440000321B0FBF1F006B010BD37
:1014200000F070F9FAE7226AC2F30121012903D121
:10143000920701D5C803F1E7022905D1626A920734
:1014400002D549F64040E9E70329E7D1216889033D
:10145000E4D54FF22440E1E702030405060708093A
:101460000A0B0C0D0E0F10100102000000100240BC
:1014700000127A0000093D002DE9F8430546007886
:10148000354CC00754D0E0690026C00008D4E0699C
:1014900040F08050E061E069012600F0805000904B
:1014A0002E480168C90512D40168804641F4807154
:1014B0000160FFF7B9FE074605E000BFFFF7B4FE85
:1014C000C01B642823D8D8F80000C005F6D5206AD0
:1014D00010F4407021D0A98801F4407181421CD0E1
:1014E000206A1F49012220F440700A6000220A602D
:1014F0002062C00711D0FFF797FE074641F28838F7
:1015000008E000BFFFF790FEC11B414502D9032050
:10151000BDE8F883206A8007F4D5206A696820F462
:101520004070084320621EB1E06920F08050E06105
:101530002878800705D56068A96820F440400843F2
:1015400060602878C00605D56068696920F480006D
:10155000084360600020DBE700100240007000409C
:10156000400442422DE9F047DFF83C8105460E4633
:10157000D8F8000000F00700B0420CD2D8F80010F4
:1015800021F007013143C8F80010D8F8000000F03E
:101590000700B04263D12878444C800705D56068C5
:1015A000A96820F0F000084360602878C00745D0A3
:1015B0006868012816D02168022816D089070029FA
:1015C0004DDA616821F0030101436160FFF72CFEF1
:1015D0006968074641F2883001290FD00229814607
:1015E00019D027E021688903E9E78901E7E700BF0F
:1015F000FFF71AFEC11B494501D918E08146606812
:10160000C0F381000128F3D118E000BFFFF70CFE02
:10161000C11B49450BD86068C0F381000228F5D191
:101620000CE000BFFFF700FEC11B494502D90320B3
:10163000BDE8F087606810F00C0FF3D1D8F8001007
:10164000404601F00701B1420BD9016821F00701C2
:1016500031430160006800F00700B04201D0012072
:10166000E6E72878400705D56068E96820F4E0607F
:10167000084360602878000706D56068296920F46F
:10168000605040EAC100606000F03CF86168084AC0
:10169000C1F30311515CC840064908600020FFF700
:1016A000E3FD0020C4E700000020024000100240DB
:1016B000943F000834000020014800687047000093
:1016C000340000200448054900684968044AC1F311
:1016D0000221515CC84070473400002000100240D5
:1016E000A43F00080448054900684968044AC1F35A
:1016F000C221515CC84070473400002000100240F5
:10170000A43F000812A185B00FC98DE80F0014A0F6
:10171000144A006804905168134801F00C03042B2C
:1017200010D0082B0ED1C1F38343C9031DF8030069
:101730000AD5516804AAC1F34041515C0A4A50439A
:10174000B0FBF1F005B0704708494843FAE70000E4
:1017500002030405060708090A0B0C0D0E0F1010F2
:10176000010200000010024000127A0000093D0052
:101770002DE9F84F04460078B94DC00748D0686895
:10178000C0F38100012807D06868C0F381000228F7
:1017900009D16868C00306D52868800338D5606819
:1017A00000286FD034E06068B0F5803F0BD010B1F6
:1017B000B0F5A02F11D0286820F480302860286868
:1017C00020F4802002E0286840F4803028606068BF
:1017D00088B1FFF729FD064609E0286840F480201B
:1017E0002860F0E7FFF720FD801B642875D8286883
:1017F0008003F7D50CE0FFF717FD064605E000BFB4
:10180000FFF712FD801B6428F0D828688003F7D406
:101810002078944E80074FF001094FF000083BD527
:10182000686810F00C0F07D06868C0F381000228C8
:1018300009D16868C00306D42868800714D52069D8
:1018400001281FD110E02069B0B1C6F80090FFF761
:10185000EBFC074605E000BFFFF7E6FCC01B0228D3
:10186000C4D828688007F7D52868616920F0F80097
:1018700040EAC10028600FE0C6F80080FFF7D4FC02
:10188000074606E0E9E000BFFFF7CEFCC01B0228D8
:1018900023D828688007F7D4207800072CD5724811
:1018A000A169D9B1C0F80090FFF7BEFC074604E07B
:1018B000FFF7BAFCC01B02280FD8686A8007F7D56B
:1018C0006A484FF4FA510068B0FBF1F0009000BF95
:1018D0000098411E0091FAD20EE080E0C0F800802E
:1018E000FFF7A2FC074604E0FFF79EFCC01B02289E
:1018F00075D8686A8007F7D42078400760D5E86912
:101900000027C00008D4E86940F08050E861E86929
:10191000012700F08050009055480168C90513D494
:101920000168834641F480710160FFF77DFC8246C7
:1019300006E000BFFFF778FCA0EB0A0064284ED851
:10194000DBF80000C005F5D5E06801280AD008B131
:10195000052813D0286A20F001002862286A20F0A8
:10196000040002E0286A40F001002862E06841F2C9
:10197000883B98B1FFF758FC82460BE0286A40F09C
:1019800004002862EEE700BFFFF74EFCA0EB0A015F
:1019900059455AD8286A8007F6D50CE0FFF744FC71
:1019A000824605E0FFF740FCA0EB0A0159454CD800
:1019B000286A8007F6D41FB1E86920F08050E861FA
:1019C000E06988B36968C1F38101022945D0022822
:1019D000C6F8608004D0FFF727FC044638E034E006
:1019E000FFF722FC074604E0FFF71EFCC01B02289D
:1019F0002BD828688001F7D4206AB0F5803F05D144
:101A00006868A16820F4003008436860D4E90801E0
:101A10000843696821F4741108436860C6F860904F
:101A2000FFF702FC044606E015E000BFFFF7FCFBF1
:101A3000001B022809D828688001F7D50BE000BFF9
:101A4000FFF7F2FB001B022802D90320BDE8F88F44
:101A500028688001F4D40020F8E70120F6E70000B0
:101A60000010024000004242800442423400002044
:101A7000007000407047000038B5044600684268B6
:101A800081684B0605D4CB0703D0530601D5216CE2
:101A900004E08B0707D5130605D5616C01B020461D
:101AA000BDE83040084711F0600F3FD093063DD5A8
:101AB0004B060AD594F85130032B34D0636D43F0B4
:101AC00004036365C36883680093890609D5616D63
:101AD00041F00101616581680091016821F04001D8
:101AE0000160606D002821D02068416821F0E0018C
:101AF0004160012084F85100900718D020684168A7
:101B000021F0030141600C4DE06C18B14563E06CBD
:101B1000FFF752F8A06C002808D04563A06CBDE820
:101B20003840FFF749B8C1688068009038BD20464A
:101B3000FFF7A0FF38BD00001D2D000870B50400A0
:101B400005D00025A56294F8510010B104E00120F1
:101B500070BD204600F034F8022084F8510020685F
:101B6000016821F040010160D4E901010843D4E992
:101B700003121143084361690843218B01F400718A
:101B80000843E1690843216A0843A16A08432168C0
:101B90000860A069042101EA1040616A08432168D5
:101BA00048602168E06A08612068C16921F4006129
:101BB000C1616565012084F85100002070BD0000FE
:101BC00010B50068154986B0884224D1144881694F
:101BD00041F4805181618069124C00F4805004907E
:101BE000B020009002200190032003906946204617
:101BF000FFF718FA00214020CDE900010291694663
:101C00002046FFF70FFA002211462320FFF798FB2A
:101C10002320FFF789FB06B010BD00000030014013
:101C200000100240000801404FF0E021042808693C
:101C300003D020F004000861704740F00400FAE788
:101C4000704710B5401EB0F1807F01D3012010BD58
:101C50004FF0E02460610F21601701F047F8002089
:101C6000A06107202061002010BD10B5FFF7E8FF3C
:101C700010BD7047704730B590F83C20012A20D045
:101C8000012280F83C20022380F83D3003685C6824
:101C900024F070045C6003685C680D682C435C6031
:101CA00003689C6824F080049C6003689C68496811
:101CB0000C439C6080F83D20002180F83C100846D1
:101CC00030BD022030BD10B5040003D094F83D00B3
:101CD00010B107E0012010BD002084F83C00204630
:101CE00000F00CF8022084F83D00211D206801F06E
:101CF000C9F8012084F83D00002010BD08B50C4A49
:101D000001680C48914207D1C16941F00401C161E9
:101D1000C06900F0040009E0074A914207D1C16997
:101D200041F00801C161C06900F00800009008BDE1
:101D30000008004000100240000C00400168CA6822
:101D400042F00102CA600068016841F001010160CF
:101D50000020704770B5044690F83C00012817D069
:101D6000012584F83C50022084F83D0020688268F8
:101D700022F0770222F47F4282600868502837D030
:101D80000DDC202859D005DC88B3102841D151E062
:101D9000022070BD302853D040283AD13FE060285F
:101DA0002ED070280BD0B0F5805F03D0B0F5005F67
:101DB0002FD110E02068816821F0070115E0CB6881
:101DC000D1E90121206801F0A3F82168886840F07A
:101DD000770088601DE0CB68D1E90121206801F01F
:101DE00097F82068816841F48041816011E01EE02D
:101DF000CA684968206801F05FF95021206806E050
:101E0000CA684968206801F068F96021206801F01B
:101E100089F884F83D50002084F83C0070BDCA6801
:101E20004968206801F048F940212068EFE7002167
:101E30002068ECE710212068E9E720212068E6E728
:101E400030212068E3E7704770B5044600680169F7
:101E50004FF00005C943890715D4C168C9438907F4
:101E600011D4E91E01610120207720688069800774
:101E7000204602D0FFF7E7FF04E000F0B7F8204665
:101E800000F056F9257720680169C943490717D43E
:101E9000C168C943490713D46FF0040101610220EE
:101EA00020772068806910F4407F204602D0FFF739
:101EB000CAFF04E000F09AF8204600F039F92577CF
:101EC00020680169C943090716D4C168C9430907D5
:101ED00012D46FF008010161042020772068C069E6
:101EE0008007204602D0FFF7AEFF04E000F07EF846
:101EF000204600F01DF9257720680169C943C9060D
:101F000017D4C168C943C90613D46FF01001016129
:101F1000082020772068C06910F4407F204602D056
:101F2000FFF791FF04E000F061F8204600F000F9AF
:101F3000257720680169C943C90708D1C168C94329
:101F4000C90704D1891E0161204600F0F3F820681A
:101F50000169C943090609D4C168C943090605D402
:101F60006FF0800101612046FFF783FE2068016960
:101F7000C943490609D4C168C943490605D46FF06D
:101F800040010161204600F0DFF920680169C94382
:101F900089060BD4C168C943890607D46FF02001B4
:101FA00001612046BDE87040FFF764BE70BD0000CF
:101FB0001FB500680A49884211D110200090022004
:101FC0000190039069460748FFF72CF806484168DE
:101FD00021F4406141F0E06141F4006141601FBDC6
:101FE00000040040000C014000000140704770B543
:101FF000044690F83C000D4601280DD0012684F8D7
:102000003C60022084F83D0042B1042A18D0082A1E
:102010002AD00C2A4DD139E0022070BD206800F092
:1020200089FF2068816941F0080181612068816928
:1020300021F004018161206881692A69114311E05E
:10204000206800F0A7FF2068816941F40061816188
:102050002068816921F480618161206881692A6931
:1020600041EA0221816124E0206800F0C9FF206874
:10207000C16941F00801C1612068C16921F0040112
:10208000C1612068C1692A69114311E0206800F02C
:10209000EBFF2068C16941F40061C1612068C1693A
:1020A00021F48061C1612068C1692A6941EA022185
:1020B000C16184F83D60002084F83C0070BD10B51B
:1020C000040003D094F83D0010B107E0012010BDDA
:1020D000002084F83C00204600F00CF8022084F830
:1020E0003D00211D206800F0CDFE012084F83D0058
:1020F000002010BD08B500680B49884212D10B487A
:10210000C16941F00201C161C069002200F0020012
:10211000009011461D20FFF713F9BDE808401D206F
:10212000FFF702B908BD00000004004000100240A3
:10213000704700002DE9F05F0746584839680126CE
:102140000068DFF85C810025564C4FF00209884298
:1021500025D110215448FFF759F80100404688F86E
:10216000001001D142781AB1C279012A10D010E0D2
:10217000C27992B98278521CD2B2827083889A4214
:102180000BD986718570C671067284F8009004E0E0
:102190002570C57185708571C66088F80110434847
:1021A00039680068884277D1E088401C80B2E080BE
:1021B000C72814D901213EA0FEF7CCF8E58060784D
:1021C0003F4F4FF4805A4FF4005BA0B1012821D05B
:1021D00002284FF0010128D03AA0FEF7BBF898F88A
:1021E0000610404601292DD02561E07801283FD016
:1021F000002846D046E0012139A0FEF7ABF80022C6
:1022000051463846FFF70BF8012259463846FFF78A
:1022100006F8E4E701213BA0FEF79CF801225946AD
:102220003846FEF7FCFF514608E03FA0FEF792F863
:10223000002251463846FEF7F2FF59463846FEF76F
:10224000EAFFCCE721694AF21042491C2161914220
:10225000CBD92561C1684A1E092A01D2A67005E0C2
:10226000092903D984F80290C8F80C502570BCE7FE
:10227000606946F29051401C6061884202D9032097
:10228000E0706561A08941F28831401C80B2A08174
:10229000884201D92671A581BDE8F09F4401002044
:1022A0003C000020000000200010014084010020BC
:1022B000456E746572204C454420436865636B002D
:1022C000000C01402073797374656D206572722073
:1022D000636F6465202D2D20303031200000000018
:1022E000477265656E206C6564206C696768742050
:1022F000616E6420726564206C656420726573652C
:1023000074000000477265656E206C6564206C691E
:1023100067687420616E6420526564206C65642077
:10232000666C617368000000526564206C6564200F
:102330004F464620616E6420677265656E206C654D
:102340006420666C61736800704710B504460068CD
:10235000416994F83920C1F3C011212A0BD151B140
:10236000416921F080014161206B08B1FEF70CFC4E
:10237000204600F022FF2068416994F83A20C1F31A
:102380008011222A0BD151B1416921F040014161F4
:10239000606B08B1FEF7F8FB204600F000FF00205C
:1023A00010BD704770B5026804461068D168536963
:1023B00010F00F0F50D003F0010501F49076354373
:1023C0005DD0C20705D0CA0503D5E26B42F0010219
:1023D000E263420705D5DA0703D0E26B42F002025E
:1023E000E263820705D5DA0703D0E26B42F004020C
:1023F000E263020705D5DA0703D0E26B42F0080278
:10240000E263E26B002A33D0800604D5880602D549
:10241000204600F0DBFE20684069E16BC0F38010CD
:10242000090700D428B3204600F0B9FE20684169AE
:1024300049061AD5416921F040014161606BA0B1A4
:102440001B494163606BFEF7B7FB002810D0606B3F
:10245000416BBDE870400847830610D58B060ED54A
:102460002046BDE8704000F0B1BE2046FFF799FF5E
:1024700070BD2046FFF795FF0020E06370BD0306A6
:1024800006D50B0604D52046BDE8704000F0A2BF7B
:102490004006F3D54806F1D5D168204621F0400129
:1024A000D160202184F8391000F099F970BD000046
:1024B000FF30000870B5040004D094F839000025FE
:1024C00010B106E0012070BD84F83850204600F0BD
:1024D00023F8242084F839002068C16821F40051D1
:1024E000C160204600F0BEFE2068016921F49041E1
:1024F00001612068416921F02A0141612068C168B9
:1025000041F40051C160E563202084F8390084F86B
:102510003A00002070BD00002DE9F0410546DFF8CB
:1025200034C1036800244C48022103224B4F80260B
:1025300086B04FF4806863452BD1836943F48043B0
:1025400083618069039200F4804004900802CDE921
:10255000000169463846FEF765FDCDE9008469460D
:1025600038460294FEF75EFD3E4F3D48C7E9000441
:10257000C7E902463C617C61BC613846FC61FEF7FC
:10258000D7FC08B1902160E06F637D6206B0BDE8C2
:10259000F081DFF8D4C063452AD1C36943F4003326
:1025A000C361C069039200F4003004900420CDE9B7
:1025B000000169463846FEF735FD0820CDE90004E4
:1025C000694638460294FEF72DFD264F24484437CD
:1025D0001430C7E90004C7E902463C617C61BC6174
:1025E0003846FC61FEF7A4FC0028CDD0BB212CE0CE
:1025F0001E4FBB42CAD1C36943F48023C361C06983
:10260000CDE9008100F48020CDE90320184F694610
:102610003846FEF707FDF814CDE900046946384650
:102620000294FEF7FFFC0F4F0D4888372838C7E9A2
:102630000004C7E902463C617C61BC613846FC612C
:10264000FEF776FC00289FD0E6210AA000F045FFA7
:102650009AE70000003801400010024000080140E5
:102660005800024084080020004400400048004018
:10267000000C01402E2E2F436F72652F5372632F73
:1026800075736172742E6300F8B5044690F83A00D1
:1026900020283CD1C1B3BAB394F83800012836D011
:1026A000012084F83800A162A2850025E56322207C
:1026B00084F83A00636B17489862636B1648D862D7
:1026C000636B16481863606B134645630846666B78
:1026D000216802463046091DFEF76CFC206801683F
:1026E0004168009184F83850C16841F48071C1603C
:1026F0002068416941F0010141612068416941F070
:10270000400141610020F8BDFFE70120FBE7022006
:10271000F9E7000059310008953100080F31000831
:10272000704770472DE9F843044690F839001F467A
:1027300016460D46202850D1A5B19EB194F8380018
:1027400001284AD0012084F838004FF00008C4F86E
:102750003C80212084F83900FEF766FDA68481467E
:10276000E68426E00120BDE8F883E08C401EE0848A
:10277000A0684B46B0F5805F4FF000024FF080013B
:102780002046009703D000F056FEE8B90DE000F0B7
:1027900052FEC8B928882168C0F308004860206943
:1027A00008B16D1C05E0AD1C03E0216815F8010BB4
:1027B0004860E08C0028D8D14B46002240212046BA
:1027C000009700F038FE08B10320CCE7202084F801
:1027D000390084F838800020C5E70220C3E770473D
:1027E000FEE700003EB513481149012401600021B5
:1027F000C0E9021441614FF460220461C26141608A
:10280000FEF70AF818B126210BA000F066FE102092
:10281000CDE900040720029069460648FDF704FF51
:10282000002803D0302104A000F057FE3EBD000078
:10283000002401404C0000202E2E2F436F72652F84
:102840005372632F6164632E630000003EB513482A
:1028500011490124016000218160C16041614FF490
:1028600060220461C2614160FDF7D6FF18B14421C6
:102870000BA000F032FE0C20CDE9000407200290EE
:1028800069460648FDF7D0FE002803D04E2104A07B
:1028900000F023FE3EBD0000002801407C00002027
:1028A0002E2E2F436F72652F5372632F6164632E38
:1028B00063000000054808B5416941F0010141612C
:1028C000406900F00100009008BD000000100240C7
:1028D0002DE9F041274886B0816941F010018161FE
:1028E000816901F010010491816941F02001816149
:1028F000816901F020010491816941F00401816145
:10290000816901F004010491816941F0080181614C
:102910008069194F00F0080042F24204049000223E
:1029200021463846FEF77BFCDFF8508047F26026F0
:10293000002231464046FEF772FC00940124022535
:102940006946384603950194FEF76CFB1020009011
:102950000020CDE9010469463846FEF763FBCDE966
:102960000064694640460395FEF75CFB06B0BDE88F
:10297000F08100000010024000100140000C0140F6
:1029800010B5002211462520FEF7DAFC2520FEF7BF
:10299000CBFC002211462620FEF7D2FC2620FEF7B3
:1029A000C3FC002211462720FEF7CAFC2720FEF7B1
:1029B000BBFC002211461E20FEF7C2FC1E20FEF7C3
:1029C000B3FC002211463220FEF7BAFC3220FEF79B
:1029D000ABFC002211460D20FEF7B2FC0D20FEF7E5
:1029E000A3FC002211460F20FEF7AAFC0F20FEF7E1
:1029F0009BFC002211461020FEF7A2FC1020FEF7DF
:102A000093FC002211461220FEF79AFCBDE810400C
:102A10001220FEF789BC0000114810B50F49016073
:102A20004FF48271416000218160C1604FF40072F7
:102A30000161C0E905122822C0E9072141628162D3
:102A40000A21C162FFF77AF8002805D0BDE81040DE
:102A5000272104A000F041BD10BD0000003001405E
:102A6000AC0000202E2E2F436F72652F5372632F00
:102A70007370692E6300000010B51C488AB01A49B3
:102A8000016040F2CF210024C0E9011440F2E73197
:102A9000C0E903148461FFF712FB18B1232114A0CD
:102AA00000F01BFD079407A910480894FFF7E3F80E
:102AB00018B12A210EA000F010FD602000904FF404
:102AC000FA70CDE901040022694608480494FFF732
:102AD0008EFA18B1332106A000F0FFFC0348FFF77F
:102AE00067FA0AB010BD0000000400400401002095
:102AF0002E2E2F436F72652F5372632F74696D2EC4
:102B00006300000010B5174886B0154901604721E1
:102B10000024C0E901146321C0E903148461FFF7B4
:102B2000D2F818B1472110A000F0D7FC4FF4805024
:102B3000009069460B48FFF70DF918B14D210AA026
:102B400000F0CBFC049404A906480594FFF793F821
:102B5000002803D0542104A000F0BFFC06B010BD33
:102B600000080040440100202E2E2F436F72652F75
:102B70005372632F74696D2E6300000010B51848FE
:102B800086B01649016047210024C0E9011440F2D3
:102B9000E731C0E903148461FFF795F818B16621A5
:102BA00010A000F09AFC4FF48050009069460C4849
:102BB000FFF7D0F818B16C210AA000F08EFC049445
:102BC00004A907480594FFF756F8002803D073219D
:102BD00004A000F082FC06B010BD0000000C004014
:102BE000840100202E2E2F436F72652F5372632FA6
:102BF00074696D2E630000000D4810B50B4901602B
:102C00004FF4E1314160002181600C22C160C0E9D4
:102C100004128161C161FFF74DFC002805D0BDE8B9
:102C200010403F2103A000F058BC10BD0038014007
:102C3000C40700202E2E2F436F72652F5372632F0F
:102C400075736172742E63000D4810B50B490160F5
:102C50004FF4E1314160002181600C22C160C0E984
:102C600004128161C161FFF725FC002805D0BDE891
:102C70001040522103A000F030BC10BD00440040C1
:102C8000040800202E2E2F436F72652F5372632F7E
:102C900075736172742E63000D4810B50B490160A5
:102CA0004FF4E1314160002181600C22C160C0E934
:102CB00004128161C161FFF7FDFB002805D0BDE86A
:102CC0001040652103A000F008BC10BD0048004082
:102CD000440800202E2E2F436F72652F5372632FEE
:102CE00075736172742E6300FEE770470907090E61
:102CF000002806DA00F00F0000F1E02080F8141D33
:102D0000704700F1E02080F8001470477047000021
:102D10000148FEF7B1BE0000AC00002010B5406ACB
:102D20000021C187C186FEF7A5FE10BD70477CB5A6
:102D30005B248DF800408DF801108DF802208DF88D
:102D40000330032401220DF101039D5C521C6940F4
:102D500092B2A242F9D38DF804105D218DF80510CE
:102D600048B101280DD0022804D10F22062168465F
:102D7000FDF738FC7CBD0F2206216846FDF706FCF6
:102D80007CBD0F2206216846FDF70EFC7CBD10B508
:102D9000FEF750FABDE81040FEF767BF30B595B0BA
:102DA00001210804CDE900100025029502240491B8
:102DB000CDE907404FF4E01009906846FEF7D8FCD3
:102DC00000B1FEE70AA90F2081E831004FF48060CE
:102DD000CDE90D0502210AA8FEF7C4FB00B1FEE70C
:102DE0004FF4004011900F940FA8FEF745FB00B17F
:102DF000FEE7FEF761FC4FF47A71B0FBF1F0FEF7ED
:102E000020FF0420FEF710FF00221146501EFEF79F
:102E100097FA15B030BD00000D48016841F001017E
:102E2000016041680B4A1140416001680A4A114043
:102E30000160016821F480210160416821F4FE01F4
:102E400041604FF41F0181600449C003086070476E
:102E5000001002400000FFF8FFFFF6FE08ED00E062
:102E60000148FEF7F1BF0000040100200148FEF711
:102E7000EBBF0000440100200148FEF7E5BF000061
:102E800084010020F0B502681C4B1D4D1D4E1E4FE5
:102E90001E4C4FF0804C984209D0A04207D06045AC
:102EA00005D0A84203D0B04201D0B84204D122F0EC
:102EB000700E4A6842EA0E02984209D0A04207D03A
:102EC000604505D0A84203D0B04201D0B84203D13A
:102ED00022F44075CA682A4322F080054A692A43D1
:102EE00002608A68C2620A688262984201D0A04287
:102EF00001D10969016301214161F0BD002C01404C
:102F00000004004000080040000C00400034014074
:102F100010B5846842EA032224F47F440A43224322
:102F2000826010BD826822F070020A4342F00701FD
:102F300081607047F0B5026A22F001020262036A02
:102F400042688469124E24F073050C682C4323F008
:102F500002058B682B430D4DA84201D0B04205D12C
:102F600023F00807CB683B4323F00403A84201D0B9
:102F7000B04205D14D6922F4407215438A692A4353
:102F800042608461496841630362F0BD002C0140E6
:102F900000340140F0B5026A22F010020262026AB7
:102FA000436884690D6824F4E64444EA05248D6886
:102FB00022F0200242EA05120F4D104EA84201D025
:102FC000B04206D1CF6822F0800242EA071222F016
:102FD0004002A84201D0B04207D14D6923F44063BA
:102FE00043EA85038D6943EA850343608461496848
:102FF00081630262F0BD0000002C014000340140FA
:10300000F0B5026A22F480720262026A4368C469FF
:1030100022F4007224F073050C68124E2C438D6864
:1030200042EA05220E4DA84201D0B04206D1CF6837
:1030300022F4006242EA072222F48062A84201D010
:10304000B04207D14D6923F4405343EA05138D691B
:1030500043EA05134360C4614968C1630262F0BD7D
:10306000002C01400034014030B5026A22F4805245
:103070000262046A4268C3690D6823F4E64343EAC6
:1030800005238D6824F4005444EA0534084DA84211
:1030900002D0084DA84204D14D6922F4804242EA90
:1030A00085124260C36149680164046230BD00005A
:1030B000002C01400034014010B5036A046A24F07A
:1030C00001040462846924F0F00444EA021423F049
:1030D0000A020A438461026210BD10B5036A23F03C
:1030E000100303628369046A23F4704343EA0232E3
:1030F00024F0A00343EA01118261016210BD10B502
:10310000406A0021C185C184FFF74BF910BD70B53D
:10311000446A2068406994F83910C0F3C010002553
:10312000212904D118B1E584204600F046F8206832
:10313000406994F83A10C0F38010222904D118B1E4
:10314000E585204600F02BF8E06B40F01000E063CE
:103150002046FFF726F970BD10B50146406A0968A0
:103160000968890613D40021C1850168CA6822F460
:103170008072CA6001684A6922F001024A610168EE
:103180004A6922F040024A61202180F83A10FFF794
:10319000C7FA10BD10B5406AFFF7C3FA10BD016849
:1031A000CA6822F49072CA6001684A6922F001027A
:1031B0004A61202180F83A1070470168CA6822F0FD
:1031C000C002CA60202180F83910704710B590F80D
:1031D0003A10222901D0022010BD8168B1F5805F2C
:1031E00011D00169002901681FD0496801F07F03EF
:1031F000816A4A1C82620B70C18D491E0904090C48
:10320000C18518D02BE00269816A002A02685268E1
:1032100005D0D2B20A80816A491C8162ECE7C2F310
:1032200008020A80816A891CF7E74A68816A4B1C98
:1032300083620A70E0E70168CA6822F02002CA606F
:103240000168CA6822F48072CA6001684A6922F083
:1032500001024A61202180F83A10FFF761FA00204C
:1032600010BD00002DE9F041044600680169E268E4
:1032700021F44051114301612169A068084361694B
:1032800008432168CA6841F20C639A430243CA604A
:1032900020684169A26921F44071114341614C49A0
:1032A00020686425322688423CD1FEF71BFA00EBE9
:1032B000C00101EB001061688900B0FBF1F7FEF777
:1032C00011FA00EBC00101EB00106168B046890003
:1032D000B0FBF1F0B0FBF5F06FF01801484307EBDD
:1032E000800106EB0110B0FBF5F000F0F006FEF7F0
:1032F000F9F900EBC00101EB001061688900B0FB37
:10330000F1F0B0FBF5F006EB0016FEF7EBF900EB81
:10331000C00101EB001061688900B0FBF1F7FEF716
:10332000E1F93BE0FEF7CEF900EBC00101EB001044
:1033300061688900B0FBF1F7FEF7C4F900EBC0014A
:1033400001EB00106168B0468900B0FBF1F0B0FB02
:10335000F5F06FF01801484307EB800106EB011010
:10336000B0FBF5F000F0F006FEF7ACF900EBC001A1
:1033700001EB001061688900B0FBF1F0B0FBF5F0E3
:1033800006EB0016FEF79EF900EBC00101EB001002
:1033900061688900B0FBF1F7FEF794F900EBC0011A
:1033A00001EB001061688900B0FBF1F0B0FBF5F0B3
:1033B0006FF01801484307EB800108EB0110B0FBE8
:1033C000F5F0216800F00F0030448860BDE8F0811E
:1033D0000038014090F83910212901D002207047AF
:1033E0008168B1F5805F016A0BD04A1C02620268F5
:1033F00009785160C18C491E0904090CC1840ED0A2
:1034000017E009880268C1F30801516001690029C9
:10341000016A02D0491C0162ECE7891CFBE70168E4
:10342000CA6822F08002CA600068C16841F04001A9
:10343000C160002070472DE9F041984617460E46BE
:103440000446069D1DE0681C1BD02DB1FDF7ECFE67
:10345000A0EB0800A84214D92068C16821F4D071FB
:10346000C1602068416921F001014161202084F898
:10347000390084F83A00002084F838000320BDE8C1
:10348000F0812068006836EA000004D00020B842CD
:10349000D9D00020F3E70120F9E7000010B5FCF7D0
:1034A000A1FFBDE810400148FEF77CBFC407002023
:1034B00010B5FCF7E7FFBDE810400148FEF772BF0A
:1034C0000408002010B5FDF72DF8BDE810400148B4
:1034D000FEF768BF44080020FEE7FEE70FB4054B87
:1034E00010B503A9044A029800F018F810BC5DF862
:1034F00014FB0000D93C00083800002002E008C896
:10350000121F08C1002AFAD170477047002001E05D
:1035100001C1121F002AFBD1704700002DE9FF4FA7
:103520008DB00F460546002606E025280BD0DDE9C4
:103530000F1290476D1C761C28780028F5D111B029
:103540003046BDE8F08F0024A246A1460122EC4996
:1035500000E0044315F8013F203B02FA03F0084263
:10356000F7D128782A2810D06FF02F022878A0F100
:103570003001092914D80AEB8A0102EB410144F019
:10358000020400EB010A6D1CF0E701CF5FEA000ABC
:1035900003D544F40054CAF1000A44F002046D1C3F
:1035A00028782E2817D115F8010F44F004042A2892
:1035B0000ED06FF02F022878A0F1300109290AD827
:1035C00009EB890102EB410100EB01096D1CF2E7F7
:1035D00057F8049B6D1C28786C280FD006DC4C280B
:1035E00017D068280DD06A2814D104E0742810D0B0
:1035F0007A280FD10DE044F400140AE044F480145A
:1036000001E044F440146978814202D104F5801449
:103610006D1C6D1C2A786E2A1FD00CDC632A31D0F9
:1036200004DC002A8BD0582A11D1A3E0642A68D088
:10363000692A0CD165E0732A2ED004DC6F2A73D07E
:10364000702A04D19BE0752A6FD0782A6ED010467C
:10365000DDE90F129047761C50E1C4F302500228B6
:1036600006D0032809D0042801CF09D0066045E11F
:1036700001CFF117C0E9006140E101CF06803DE1D3
:1036800006703BE117F8040B8DF8000000208DF860
:103690000100EB46012003E057F804BB4FF0FF3078
:1036A00061074FF0000102D40DE008F101018846E6
:1036B00049450FDA8045F8DB1BF808100029F4D1E2
:1036C00008E008F1010188468142FADB1BF8081086
:1036D0000029F6D1DDE90F23AAEB08008146214637
:1036E00000F036F9304400EB080604E0DDE90F1283
:1036F0001BF8010B9047B8F10108F7D22146484664
:10370000F7E00A21C4F302534FF0000B0891022B9B
:1037100004D001CFC117032B09D00AE0FF1D27F009
:103720000707F7E8020108E032E01FE020E000B2FE
:10373000C117042B01D140B2C117031E71F1000360
:1037400007DA4FF0000CD0EB0C006CEB01012D23DD
:1037500002E0230504D52B238DF82430012303E058
:10376000E30701D02023F7E7984658E00A2110E04C
:1037700010210EE010204FF0000B08900CE01021FB
:103780004FF0000B44F004044FF00809089103E0E7
:1037900008214FF0000B0891C4F30253022B04D010
:1037A00001CF0021032B06D006E0FF1D27F00707FD
:1037B000F7E8020103E080B2042B00D1C0B24FF061
:1037C000000823072BD5702A07D0DDF820C08CF025
:1037D000100C5CEA0B0C05D00EE040238DF8243071
:1037E000012308E050EA010306D030238DF824308D
:1037F0008DF8252002239846DDF820C08CF0080CB7
:103800005CEA0B0C0BD150EA010301D1630706D52A
:1038100030238DF824304FF00108A9F10109582A0E
:1038200004D038A20B9208AA0A920BE03AA2F9E758
:103830005B46089AFCF7CCFC0B9B9B5C0A9A521ED9
:103840000A92137050EA0102F2D10A98ADEB00001F
:1038500000F1200B600702D524F4803401E04FF022
:103860000109D94502DDA9EB0B0000E0002000EBC7
:103870000B0141440890AAEB010AE00306D4DDE9FC
:103880000F232146504600F063F806444FF000092C
:1038900008E009A911F80900DDE90F12904709F1C4
:1038A0000109761CC145F4DBE0030CD5DDE90F23EB
:1038B0002146504600F04CF8064404E0DDE90F12C2
:1038C00030209047761C0899481E08900029F5DCA6
:1038D00008E00A980A990078491C0A91DDE90F125C
:1038E0009047761CBBF10001ABF1010BF1DC2146E6
:1038F0005046DDE90F2300F019F806446D1C1BE665
:1039000009280100303132333435363738396162B5
:103910006364656600000000303132333435363779
:103920003839414243444546000000002DE9F0414A
:10393000044600251E461746880404D405E039468F
:103940002020B0476D1C641EF9D52846BDE8F081E3
:103950002DE9F041044600251E469046C80301D5D6
:10396000302700E02027880404D505E0414638468A
:10397000B0476D1C641EF9D52846BDE8F0810000F3
:103980002DE9F0413A48017800296FD04FF0000846
:1039900080F80080012137A0FCF7DCFC3E4D3D4A59
:1039A0003EA02988FFF79AFD0F2229883948FCF7A5
:1039B000EDFD384C20785B2852D12888204410F83F
:1039C000010C5D284CD160780A21B1EB101F4FF03B
:1039D000010103D139A0FCF7BDFC41E03EA0FCF79A
:1039E000B9FC6078B2282BD1A0780126414F01287C
:1039F00011D1012140A0FCF7ADFC0F2229882548F8
:103A0000FCF7D2FD0F2229882248FCF7EBFDFE705F
:103A10006078B22814D1A078022821D1012140A0D9
:103A2000FCF798FCA6700F2229881A48FCF7DAFDEB
:103A30000F2229881748FCF7B7FDFE700320387065
:103A40006078C12804D10F2229881248FCF7ACFD08
:103A50006078C22804D10F2229880E48FCF7C2FDE5
:103A600029880C48FCF7A9FBA5F80080BDE8F08187
:103A70001800002052656365697665206279746577
:103A8000732066726F6D20636F7265626F6172641E
:103A900000000000C40200201E00002074686520A1
:103AA00075617274312072785F6C656E746820691C
:103AB000732025643A0A25730D0A00005265636578
:103AC0006976652041434B2066726F6D20636F728B
:103AD00065626F6172640000526563656976652096
:103AE000434D442066726F6D20636F7265626F6133
:103AF00072640000000000205265636569766520ED
:103B00004F70656E20646F6F7220636D6420667203
:103B10006F6D20636F7265626F61726400000000F8
:103B20005265636569766520566964656F732074B4
:103B3000697267676C6520636D642066726F6D20C3
:103B4000636F7265626F61726400000070B5204837
:103B5000017800293AD00025057002211DA0FCF74C
:103B6000F9FB264C244A26A02188FFF7B7FC0F2238
:103B700021882148FCF718FD1F4801785B2920D1D6
:103B80002188421812F8012C5D2A1AD142780A23A2
:103B9000B3EB121F15D0224BDE78012E01D1E32AA0
:103BA00002D0C12A09D00CE08078012802D0022876
:103BB00001D006E00320D87003E00F220E48FCF786
:103BC000E5FC21880C48FCF7F8FA258070BD000060
:103BD0001900002052656365697665206279746515
:103BE000732066726F6D206C65667420646F6F72EF
:103BF00020626F6172640000C40400202200002073
:103C00007468652075617274322072785F6C656EBD
:103C100074682069732025643A0A2025730D0A0010
:103C20000000002070B51848017800292AD000252E
:103C30000570022115A0FCF78DFB1E4C1C4A1EA02E
:103C40002188FFF74BFC0F2221881948FCF7CAFC9A
:103C5000174801785B2910D12188421812F8012CED
:103C60005D2A0AD140780A22B2EB101F05D0C22883
:103C700003D10F220E48FCF789FC21880C48FCF781
:103C80009CFA258070BD00001A0000205265636513
:103C90006976652062797465732066726F6D207233
:103CA0006967687420646F6F7220626F617264006C
:103CB000C4060020260000207468652075617274B7
:103CC000322072785F6C656E746820697320256499
:103CD0003A0A2025730D0A0013B502230122694612
:103CE0000248FEF71FFD00981CBD0000C40700201D
:103CF00010B5194C2079012802D04FF0FF3010BDCB
:103D0000002020711548FCF7DFFE1548FCF7DCFEAB
:103D100060211248FCF740FE60211148FCF73CFE90
:103D20000E48FCF700FD800503D50C48FCF7FDFCB0
:103D300020810B48FCF7F7FC800503D50848FCF709
:103D4000F4FC60816289218906A002EB0144FFF73F
:103D5000C5FB204610BD0000000000204C000020E4
:103D60007C00002054656D70747572652069733A2B
:103D70002030782530345809204C696768742069F0
:103D8000733A203078253034580A00001CB5FDF70E
:103D900059FAFFF703F8FEF79BFDFEF78BFDFEF7E0
:103DA00021FDFEF739FEFEF7ADFEFEF7E7FEFEF75A
:103DB00023FFFEF749FFFEF76FFFFEF75DFEFEF7FC
:103DC00045FDFEF7DDFD4948FDF7B8FF4848FDF722
:103DD000B5FF484E00253220B570B080F560FCF785
:103DE000EDFAFCF733FBFCF781FB434F434C4FF4F8
:103DF000007A4FF001094FF0020800225146384680
:103E0000FDF70DFAFFF7BCFDFFF7A0FEFFF70AFF75
:103E1000FFF76EFF207870BB2089E189884201D9C5
:103E2000002200E0012220213846FDF7F8F96570F4
:103E3000A078022805D0012809D0E078032806D010
:103E400014E003212EA0FCF785FAA570F5E7A57014
:103E5000E57003212FA0FCF77DFA01230222AB219C
:103E60000020FEF764FFF068401CF0600122402152
:103E70003846FDF7D4F92078012802D0022803D073
:103E800026E084F80190B8E7002240213846FDF78B
:103E9000C6F984F80180307A012817D15B208DF8AB
:103EA0000000B1208DF801008DF80450B0208DF88D
:103EB00005005D208DF802908DF806008DF8035006
:103EC0000F2207216846FCF761FB357200F02CF8E1
:103ED0002078032891D1002240213846FDF79FF930
:103EE00084F8018000F020F887E7000044010020FA
:103EF000840100203C000020000C01400000002054
:103F0000636F696C20746967676572206572726F90
:103F1000720000004361722073746F7073207469C3
:103F20006D656F75740000000F4810B5C2780021F0
:103F3000022A0FD0032A15D1C170017003210BA0F2
:103F4000FCF708FA01230222AB21BDE81040002053
:103F5000FEF7EDBEC1700170032109A0FCF7FAF96C
:103F60000023F0E710BD0000000000204361722034
:103F7000456E7465722074696D656F75740000001C
:103F800043617220456E7465722073756363657357
:103F900073656400000000000000000001020304DB
:103FA000060708090000000001020304CC3F0008D6
:103FB000000000203C000000FC340008084000081D
:103FC0003C000020140D00000C350008000000002B
:103FD00000000000000000000000080700000000D2
:103FE00000000000000000000000000000000000D1
:103FF00000000000010000001000000000000000B0
:0840000000A24A0400000000C8
:0400000508000131BD
:00000001FF
